{
  "contractName": "GravatarRegistry",
  "abi": [
    {
      "constant": true,
      "inputs": [
        {
          "name": "",
          "type": "uint256"
        }
      ],
      "name": "gravatarToOwner",
      "outputs": [
        {
          "name": "",
          "type": "address"
        }
      ],
      "payable": false,
      "stateMutability": "view",
      "type": "function"
    },
    {
      "constant": true,
      "inputs": [
        {
          "name": "",
          "type": "address"
        }
      ],
      "name": "ownerToGravatar",
      "outputs": [
        {
          "name": "",
          "type": "uint256"
        }
      ],
      "payable": false,
      "stateMutability": "view",
      "type": "function"
    },
    {
      "constant": true,
      "inputs": [
        {
          "name": "",
          "type": "uint256"
        }
      ],
      "name": "gravatars",
      "outputs": [
        {
          "name": "owner",
          "type": "address"
        },
        {
          "name": "displayName",
          "type": "string"
        },
        {
          "name": "imageUrl",
          "type": "string"
        },
        {
          "name": "wiki",
          "type": "string"
        }
      ],
      "payable": false,
      "stateMutability": "view",
      "type": "function"
    },
    {
      "anonymous": false,
      "inputs": [
        {
          "indexed": false,
          "name": "id",
          "type": "uint256"
        },
        {
          "indexed": false,
          "name": "owner",
          "type": "address"
        },
        {
          "indexed": false,
          "name": "displayName",
          "type": "string"
        },
        {
          "indexed": false,
          "name": "imageUrl",
          "type": "string"
        },
        {
          "indexed": false,
          "name": "wiki",
          "type": "string"
        }
      ],
      "name": "NewGravatar",
      "type": "event"
    },
    {
      "anonymous": false,
      "inputs": [
        {
          "indexed": false,
          "name": "id",
          "type": "uint256"
        },
        {
          "indexed": false,
          "name": "owner",
          "type": "address"
        },
        {
          "indexed": false,
          "name": "displayName",
          "type": "string"
        },
        {
          "indexed": false,
          "name": "imageUrl",
          "type": "string"
        },
        {
          "indexed": false,
          "name": "wiki",
          "type": "string"
        }
      ],
      "name": "UpdatedGravatar",
      "type": "event"
    },
    {
      "constant": false,
      "inputs": [
        {
          "name": "_displayName",
          "type": "string"
        },
        {
          "name": "_imageUrl",
          "type": "string"
        },
        {
          "name": "_wiki",
          "type": "string"
        }
      ],
      "name": "createGravatar",
      "outputs": [],
      "payable": false,
      "stateMutability": "nonpayable",
      "type": "function"
    },
    {
      "constant": true,
      "inputs": [
        {
          "name": "owner",
          "type": "address"
        }
      ],
      "name": "getGravatar",
      "outputs": [
        {
          "name": "",
          "type": "string"
        },
        {
          "name": "",
          "type": "string"
        },
        {
          "name": "",
          "type": "string"
        }
      ],
      "payable": false,
      "stateMutability": "view",
      "type": "function"
    },
    {
      "constant": false,
      "inputs": [
        {
          "name": "_displayName",
          "type": "string"
        }
      ],
      "name": "updateGravatarName",
      "outputs": [],
      "payable": false,
      "stateMutability": "nonpayable",
      "type": "function"
    },
    {
      "constant": false,
      "inputs": [
        {
          "name": "_imageUrl",
          "type": "string"
        }
      ],
      "name": "updateGravatarImage",
      "outputs": [],
      "payable": false,
      "stateMutability": "nonpayable",
      "type": "function"
    },
    {
      "constant": false,
      "inputs": [
        {
          "name": "_wiki",
          "type": "string"
        }
      ],
      "name": "updateGravatarWiki",
      "outputs": [],
      "payable": false,
      "stateMutability": "nonpayable",
      "type": "function"
    },
    {
      "constant": false,
      "inputs": [],
      "name": "setMythicalGravatar",
      "outputs": [],
      "payable": false,
      "stateMutability": "nonpayable",
      "type": "function"
    }
  ],
  "bytecode": "0x608060405234801561001057600080fd5b50611dcc806100206000396000f300608060405260043610610098576000357c0100000000000000000000000000000000000000000000000000000000900463ffffffff16806281d6e51461009d5780630f30551c146101065780631d4f2c6d1461016f578063359c1f7214610186578063516ada4d1461031a57806388d0d3911461040f578063a5ac36341461047c578063b18588fb146104d3578063d5ce24ed1461053c575b600080fd5b3480156100a957600080fd5b50610104600480360381019080803590602001908201803590602001908080601f01602080910402602001604051908101604052809392919081815260200183838082843782019150505050505091929192905050506106ed565b005b34801561011257600080fd5b5061016d600480360381019080803590602001908201803590602001908080601f0160208091040260200160405190810160405280939291908181526020018383808284378201915050505050509192919290505050610a9b565b005b34801561017b57600080fd5b50610184610e49565b005b34801561019257600080fd5b506101c7600480360381019080803573ffffffffffffffffffffffffffffffffffffffff169060200190929190505050611029565b60405180806020018060200180602001848103845287818151815260200191508051906020019080838360005b8381101561020f5780820151818401526020810190506101f4565b50505050905090810190601f16801561023c5780820380516001836020036101000a031916815260200191505b50848103835286818151815260200191508051906020019080838360005b8381101561027557808201518184015260208101905061025a565b50505050905090810190601f1680156102a25780820380516001836020036101000a031916815260200191505b50848103825285818151815260200191508051906020019080838360005b838110156102db5780820151818401526020810190506102c0565b50505050905090810190601f1680156103085780820380516001836020036101000a031916815260200191505b50965050505050505060405180910390f35b34801561032657600080fd5b5061040d600480360381019080803590602001908201803590602001908080601f0160208091040260200160405190810160405280939291908181526020018383808284378201915050505050509192919290803590602001908201803590602001908080601f0160208091040260200160405190810160405280939291908181526020018383808284378201915050505050509192919290803590602001908201803590602001908080601f01602080910402602001604051908101604052809392919081815260200183838082843782019150505050505091929192905050506112b4565b005b34801561041b57600080fd5b5061043a6004803603810190808035906020019092919050505061165b565b604051808273ffffffffffffffffffffffffffffffffffffffff1673ffffffffffffffffffffffffffffffffffffffff16815260200191505060405180910390f35b34801561048857600080fd5b506104bd600480360381019080803573ffffffffffffffffffffffffffffffffffffffff16906020019092919050505061168e565b6040518082815260200191505060405180910390f35b3480156104df57600080fd5b5061053a600480360381019080803590602001908201803590602001908080601f01602080910402602001604051908101604052809392919081815260200183838082843782019150505050505091929192905050506116a6565b005b34801561054857600080fd5b5061056760048036038101908080359060200190929190505050611a54565b604051808573ffffffffffffffffffffffffffffffffffffffff1673ffffffffffffffffffffffffffffffffffffffff168152602001806020018060200180602001848103845287818151815260200191508051906020019080838360005b838110156105e15780820151818401526020810190506105c6565b50505050905090810190601f16801561060e5780820380516001836020036101000a031916815260200191505b50848103835286818151815260200191508051906020019080838360005b8381101561064757808201518184015260208101905061062c565b50505050905090810190601f1680156106745780820380516001836020036101000a031916815260200191505b50848103825285818151815260200191508051906020019080838360005b838110156106ad578082015181840152602081019050610692565b50505050905090810190601f1680156106da5780820380516001836020036101000a031916815260200191505b5097505050505050505060405180910390f35b600080600260003373ffffffffffffffffffffffffffffffffffffffff1673ffffffffffffffffffffffffffffffffffffffff168152602001908152602001600020541415151561073d57600080fd5b6000600260003373ffffffffffffffffffffffffffffffffffffffff1673ffffffffffffffffffffffffffffffffffffffff1681526020019081526020016000205481548110151561078b57fe5b906000526020600020906004020160000160009054906101000a900473ffffffffffffffffffffffffffffffffffffffff1673ffffffffffffffffffffffffffffffffffffffff163373ffffffffffffffffffffffffffffffffffffffff161415156107f657600080fd5b600260003373ffffffffffffffffffffffffffffffffffffffff1673ffffffffffffffffffffffffffffffffffffffff1681526020019081526020016000205490508160008281548110151561084857fe5b9060005260206000209060040201600201908051906020019061086c929190611c7b565b507fa7cc6cff5757dd69038ff961150f61e532ed594d96bd3f81ad7efbe619120725813360008481548110151561089f57fe5b9060005260206000209060040201600101856000868154811015156108c057fe5b9060005260206000209060040201600301604051808681526020018573ffffffffffffffffffffffffffffffffffffffff1673ffffffffffffffffffffffffffffffffffffffff16815260200180602001806020018060200184810384528781815460018160011615610100020316600290048152602001915080546001816001161561010002031660029004801561099a5780601f1061096f5761010080835404028352916020019161099a565b820191906000526020600020905b81548152906001019060200180831161097d57829003601f168201915b5050848103835286818151815260200191508051906020019080838360005b838110156109d45780820151818401526020810190506109b9565b50505050905090810190601f168015610a015780820380516001836020036101000a031916815260200191505b50848103825285818154600181600116156101000203166002900481526020019150805460018160011615610100020316600290048015610a835780601f10610a5857610100808354040283529160200191610a83565b820191906000526020600020905b815481529060010190602001808311610a6657829003601f168201915b50509850505050505050505060405180910390a15050565b600080600260003373ffffffffffffffffffffffffffffffffffffffff1673ffffffffffffffffffffffffffffffffffffffff1681526020019081526020016000205414151515610aeb57600080fd5b6000600260003373ffffffffffffffffffffffffffffffffffffffff1673ffffffffffffffffffffffffffffffffffffffff16815260200190815260200160002054815481101515610b3957fe5b906000526020600020906004020160000160009054906101000a900473ffffffffffffffffffffffffffffffffffffffff1673ffffffffffffffffffffffffffffffffffffffff163373ffffffffffffffffffffffffffffffffffffffff16141515610ba457600080fd5b600260003373ffffffffffffffffffffffffffffffffffffffff1673ffffffffffffffffffffffffffffffffffffffff16815260200190815260200160002054905081600082815481101515610bf657fe5b90600052602060002090600402016003019080519060200190610c1a929190611c7b565b507fa7cc6cff5757dd69038ff961150f61e532ed594d96bd3f81ad7efbe6191207258133600084815481101515610c4d57fe5b9060005260206000209060040201600101600085815481101515610c6d57fe5b906000526020600020906004020160020186604051808681526020018573ffffffffffffffffffffffffffffffffffffffff1673ffffffffffffffffffffffffffffffffffffffff168152602001806020018060200180602001848103845287818154600181600116156101000203166002900481526020019150805460018160011615610100020316600290048015610d485780601f10610d1d57610100808354040283529160200191610d48565b820191906000526020600020905b815481529060010190602001808311610d2b57829003601f168201915b5050848103835286818154600181600116156101000203166002900481526020019150805460018160011615610100020316600290048015610dcb5780601f10610da057610100808354040283529160200191610dcb565b820191906000526020600020905b815481529060010190602001808311610dae57829003601f168201915b5050848103825285818151815260200191508051906020019080838360005b83811015610e05578082015181840152602081019050610dea565b50505050905090810190601f168015610e325780820380516001836020036101000a031916815260200191505b509850505050505050505060405180910390a15050565b732b382ede0ddcffd6e491ef4a679bf0f2ce75a6113373ffffffffffffffffffffffffffffffffffffffff16141515610e8157600080fd5b6000608060405190810160405280600073ffffffffffffffffffffffffffffffffffffffff1681526020016040805190810160405280600181526020017f200000000000000000000000000000000000000000000000000000000000000081525081526020016040805190810160405280600181526020017f200000000000000000000000000000000000000000000000000000000000000081525081526020016040805190810160405280600181526020017f20000000000000000000000000000000000000000000000000000000000000008152508152509080600181540180825580915050906001820390600052602060002090600402016000909192909190915060008201518160000160006101000a81548173ffffffffffffffffffffffffffffffffffffffff021916908373ffffffffffffffffffffffffffffffffffffffff1602179055506020820151816001019080519060200190610fe9929190611cfb565b506040820151816002019080519060200190611006929190611cfb565b506060820151816003019080519060200190611023929190611cfb565b50505050565b60608060606000600260008673ffffffffffffffffffffffffffffffffffffffff1673ffffffffffffffffffffffffffffffffffffffff16815260200190815260200160002054905060008181548110151561108157fe5b90600052602060002090600402016001016000828154811015156110a157fe5b90600052602060002090600402016002016000838154811015156110c157fe5b9060005260206000209060040201600301828054600181600116156101000203166002900480601f0160208091040260200160405190810160405280929190818152602001828054600181600116156101000203166002900480156111675780601f1061113c57610100808354040283529160200191611167565b820191906000526020600020905b81548152906001019060200180831161114a57829003601f168201915b50505050509250818054600181600116156101000203166002900480601f0160208091040260200160405190810160405280929190818152602001828054600181600116156101000203166002900480156112035780601f106111d857610100808354040283529160200191611203565b820191906000526020600020905b8154815290600101906020018083116111e657829003601f168201915b50505050509150808054600181600116156101000203166002900480601f01602080910402602001604051908101604052809291908181526020018280546001816001161561010002031660029004801561129f5780601f106112745761010080835404028352916020019161129f565b820191906000526020600020905b81548152906001019060200180831161128257829003601f168201915b50505050509050935093509350509193909250565b600080600260003373ffffffffffffffffffffffffffffffffffffffff1673ffffffffffffffffffffffffffffffffffffffff1681526020019081526020016000205414151561130357600080fd5b600160006080604051908101604052803373ffffffffffffffffffffffffffffffffffffffff168152602001878152602001868152602001858152509080600181540180825580915050906001820390600052602060002090600402016000909192909190915060008201518160000160006101000a81548173ffffffffffffffffffffffffffffffffffffffff021916908373ffffffffffffffffffffffffffffffffffffffff16021790555060208201518160010190805190602001906113cd929190611cfb565b5060408201518160020190805190602001906113ea929190611cfb565b506060820151816003019080519060200190611407929190611cfb565b505050039050336001600083815260200190815260200160002060006101000a81548173ffffffffffffffffffffffffffffffffffffffff021916908373ffffffffffffffffffffffffffffffffffffffff16021790555080600260003373ffffffffffffffffffffffffffffffffffffffff1673ffffffffffffffffffffffffffffffffffffffff168152602001908152602001600020819055507f8fd0218c8c50b909f1027731cf7b82458ae77f2f4d3c46fa3bc60699078a738a8133868686604051808681526020018573ffffffffffffffffffffffffffffffffffffffff1673ffffffffffffffffffffffffffffffffffffffff168152602001806020018060200180602001848103845287818151815260200191508051906020019080838360005b8381101561154957808201518184015260208101905061152e565b50505050905090810190601f1680156115765780820380516001836020036101000a031916815260200191505b50848103835286818151815260200191508051906020019080838360005b838110156115af578082015181840152602081019050611594565b50505050905090810190601f1680156115dc5780820380516001836020036101000a031916815260200191505b50848103825285818151815260200191508051906020019080838360005b838110156116155780820151818401526020810190506115fa565b50505050905090810190601f1680156116425780820380516001836020036101000a031916815260200191505b509850505050505050505060405180910390a150505050565b60016020528060005260406000206000915054906101000a900473ffffffffffffffffffffffffffffffffffffffff1681565b60026020528060005260406000206000915090505481565b600080600260003373ffffffffffffffffffffffffffffffffffffffff1673ffffffffffffffffffffffffffffffffffffffff16815260200190815260200160002054141515156116f657600080fd5b6000600260003373ffffffffffffffffffffffffffffffffffffffff1673ffffffffffffffffffffffffffffffffffffffff1681526020019081526020016000205481548110151561174457fe5b906000526020600020906004020160000160009054906101000a900473ffffffffffffffffffffffffffffffffffffffff1673ffffffffffffffffffffffffffffffffffffffff163373ffffffffffffffffffffffffffffffffffffffff161415156117af57600080fd5b600260003373ffffffffffffffffffffffffffffffffffffffff1673ffffffffffffffffffffffffffffffffffffffff1681526020019081526020016000205490508160008281548110151561180157fe5b90600052602060002090600402016001019080519060200190611825929190611c7b565b507fa7cc6cff5757dd69038ff961150f61e532ed594d96bd3f81ad7efbe61912072581338460008581548110151561185957fe5b906000526020600020906004020160020160008681548110151561187957fe5b9060005260206000209060040201600301604051808681526020018573ffffffffffffffffffffffffffffffffffffffff1673ffffffffffffffffffffffffffffffffffffffff168152602001806020018060200180602001848103845287818151815260200191508051906020019080838360005b8381101561190a5780820151818401526020810190506118ef565b50505050905090810190601f1680156119375780820380516001836020036101000a031916815260200191505b508481038352868181546001816001161561010002031660029004815260200191508054600181600116156101000203166002900480156119b95780601f1061198e576101008083540402835291602001916119b9565b820191906000526020600020905b81548152906001019060200180831161199c57829003601f168201915b5050848103825285818154600181600116156101000203166002900481526020019150805460018160011615610100020316600290048015611a3c5780601f10611a1157610100808354040283529160200191611a3c565b820191906000526020600020905b815481529060010190602001808311611a1f57829003601f168201915b50509850505050505050505060405180910390a15050565b600081815481101515611a6357fe5b90600052602060002090600402016000915090508060000160009054906101000a900473ffffffffffffffffffffffffffffffffffffffff1690806001018054600181600116156101000203166002900480601f016020809104026020016040519081016040528092919081815260200182805460018160011615610100020316600290048015611b355780601f10611b0a57610100808354040283529160200191611b35565b820191906000526020600020905b815481529060010190602001808311611b1857829003601f168201915b505050505090806002018054600181600116156101000203166002900480601f016020809104026020016040519081016040528092919081815260200182805460018160011615610100020316600290048015611bd35780601f10611ba857610100808354040283529160200191611bd3565b820191906000526020600020905b815481529060010190602001808311611bb657829003601f168201915b505050505090806003018054600181600116156101000203166002900480601f016020809104026020016040519081016040528092919081815260200182805460018160011615610100020316600290048015611c715780601f10611c4657610100808354040283529160200191611c71565b820191906000526020600020905b815481529060010190602001808311611c5457829003601f168201915b5050505050905084565b828054600181600116156101000203166002900490600052602060002090601f016020900481019282601f10611cbc57805160ff1916838001178555611cea565b82800160010185558215611cea579182015b82811115611ce9578251825591602001919060010190611cce565b5b509050611cf79190611d7b565b5090565b828054600181600116156101000203166002900490600052602060002090601f016020900481019282601f10611d3c57805160ff1916838001178555611d6a565b82800160010185558215611d6a579182015b82811115611d69578251825591602001919060010190611d4e565b5b509050611d779190611d7b565b5090565b611d9d91905b80821115611d99576000816000905550600101611d81565b5090565b905600a165627a7a723058209312ad220a9501161ee909647e18ae91c082849ca297dbbe8f7d9ecdd1c23fd30029",
  "source": "pragma solidity ^0.4.2;\r\n// 0v2 JC add wiki to https://github.com/danigrant/gravity\r\n// 0.4.21. ganoche 7545\r\n\r\ncontract GravatarRegistry {\r\n  event NewGravatar(uint id, address owner, string displayName, string imageUrl, string wiki);\r\n  event UpdatedGravatar(uint id, address owner, string displayName, string imageUrl, string wiki);\r\n\r\n  struct Gravatar {\r\n    address owner;\r\n    string displayName;\r\n    string imageUrl;\r\n    string wiki;\r\n  }\r\n\r\n  Gravatar[] public gravatars;\r\n\r\n  mapping (uint => address) public gravatarToOwner;\r\n  mapping (address => uint) public ownerToGravatar;\r\n\r\n  function createGravatar(string _displayName, string _imageUrl, string _wiki) public {\r\n    require(ownerToGravatar[msg.sender] == 0);\r\n    uint id = gravatars.push(Gravatar(msg.sender, _displayName, _imageUrl, _wiki)) - 1;\r\n\r\n    gravatarToOwner[id] = msg.sender;\r\n    ownerToGravatar[msg.sender] = id;\r\n\r\n    emit NewGravatar(id, msg.sender, _displayName, _imageUrl, _wiki);\r\n  }\r\n\r\n  function getGravatar(address owner) public view returns (string, string, string) {\r\n    uint id = ownerToGravatar[owner];\r\n    return (gravatars[id].displayName, gravatars[id].imageUrl, gravatars[id].wiki);\r\n  }\r\n\r\n  function updateGravatarName(string _displayName) public {\r\n    require(ownerToGravatar[msg.sender] != 0);\r\n    require(msg.sender == gravatars[ownerToGravatar[msg.sender]].owner);\r\n\r\n    uint id = ownerToGravatar[msg.sender];\r\n\r\n    gravatars[id].displayName = _displayName;\r\n    emit UpdatedGravatar(id, msg.sender, _displayName, gravatars[id].imageUrl, gravatars[id].wiki);\r\n  }\r\n\r\n  function updateGravatarImage(string _imageUrl) public {\r\n    require(ownerToGravatar[msg.sender] != 0);\r\n    require(msg.sender == gravatars[ownerToGravatar[msg.sender]].owner);\r\n\r\n    uint id = ownerToGravatar[msg.sender];\r\n\r\n    gravatars[id].imageUrl =  _imageUrl;\r\n    emit UpdatedGravatar(id, msg.sender, gravatars[id].displayName, _imageUrl, gravatars[id].wiki);\r\n  }\r\n  function updateGravatarWiki(string _wiki) public {\r\n    require(ownerToGravatar[msg.sender] != 0);\r\n    require(msg.sender == gravatars[ownerToGravatar[msg.sender]].owner);\r\n\r\n    uint id = ownerToGravatar[msg.sender];\r\n\r\n    gravatars[id].wiki =  _wiki;\r\n    emit UpdatedGravatar(id, msg.sender, gravatars[id].displayName, gravatars[id].imageUrl, _wiki);\r\n  }\r\n\r\n  // the gravatar at position 0 of gravatars[]\r\n  // is fake\r\n  // it's a mythical gravatar\r\n  // that doesn't really exist\r\n  // invoke this function once when this contract is deployed\r\n  // but then no more\r\n  function setMythicalGravatar() public {\r\n    require(msg.sender == 0x2b382ede0ddcffd6e491ef4a679bf0f2ce75a611);\r\n    gravatars.push(Gravatar(0x0, \" \", \" \",\" \"));\r\n  }\r\n}\r\n",
  "sourcePath": "/home/ubuntu/example-subgraph-truthpipes/contracts/Gravity.sol",
  "compiler": {
    "name": "solc",
    "version": "0.4.25+commit.59dbf8f1.Emscripten.clang"
  },
  "schemaVersion": "3.0.17",
  "updatedAt": "2019-11-06T02:12:55.710Z",
  "devdoc": {
    "methods": {}
  },
  "userdoc": {
    "methods": {}
  }
}